:100000000C945D000C9485000C9485000C94850084
:100010000C9485000C9485000C9485000C9485004C
:100020000C9485000C9485000C9485000C9485003C
:100030000C9485000C9485000C9485000C9485002C
:100040000C9408030C9485000C9478030C945203D0
:100050000C9485000C9485000C9485000C9485000C
:100060000C9485000C94850000000008000201003B
:100070000003040700000000000000000000000072
:10008000250028002B0000000000240027002A0083
:10009000040404040404040402020202020203032E
:1000A0000303030301020408102040800102040836
:1000B00010200102040810207C0411241FBECFEF81
:1000C000D8E0DEBFCDBF11E0A0E0B1E0E6EAF9E0A4
:1000D00002C005900D92AC39B107D9F722E0ACE926
:1000E000B1E001C01D92A434B207E1F710E0CDE504
:1000F000D0E004C02197FE010E94CB04CC35D1078B
:10010000C9F70E94AA030C94D1040C94000090E05B
:10011000FC01EC55FF4F249180579F4FFC018491C7
:10012000882399F090E0880F991FFC01EA57FF4F50
:10013000A591B491FC01E458FF4F859194918FB73C
:10014000F894EC91E22BEC938FBF0895AF92BF929D
:10015000CF92DF92EF92FF920F931F93CF93DF9393
:100160006C017B018B01040F151FEB015E01AE18C2
:10017000BF08C017D10759F06991D601ED91FC91E4
:100180000190F081E02DC6010995892B79F7C50111
:10019000DF91CF911F910F91FF90EF90DF90CF9063
:1001A000BF90AF900895FC01538D448D252F30E012
:1001B000842F90E0821B930B541710F0CF96089574
:1001C00001970895FC01918D828D981761F0A28DA1
:1001D000AE0FBF2FB11D5D968C91928D9F5F9F7367
:1001E000928F90E008958FEF9FEF0895FC01918D1D
:1001F000828D981731F0828DE80FF11D858D90E08A
:1002000008958FEF9FEF0895FC01918D228D892F26
:1002100090E0805C9F4F821B91098F73992708950E
:1002200087EA91E00E94040121E0892B09F420E093
:10023000822F089580E090E0892B29F00E94100120
:1002400081110C9400000895FC01A48DA80FB92F12
:10025000B11DA35ABF4F2C91848D90E001968F73EE
:100260009927848FA689B7892C93A089B1898C910D
:10027000837080648C93938D848D981306C002885C
:10028000F389E02D80818F7D80830895EF92FF9226
:100290000F931F93CF93DF93EC0181E0888F9B8DA9
:1002A0008C8D98131AC0E889F989808185FF15C063
:1002B0009FB7F894EE89FF896083E889F989808186
:1002C0008370806480839FBF81E090E0DF91CF9155
:1002D0001F910F91FF90EF900895F62E0B8D10E077
:1002E0000F5F1F4F0F731127E02E8C8D8E110CC0E6
:1002F0000FB607FCFACFE889F989808185FFF5CF31
:10030000CE010E942401F1CFEB8DEC0FFD2FF11DEA
:10031000E35AFF4FF0829FB7F8940B8FEA89FB896D
:1003200080818062CFCFCF93DF93EC01888D8823CB
:10033000B9F0AA89BB89E889F9898C9185FD03C048
:10034000808186FD0DC00FB607FCF7CF8C9185FF2D
:10035000F2CF808185FFEDCFCE010E942401E9CF4D
:10036000DF91CF91089590E0FC01E859FF4F24916F
:10037000FC01EC55FF4F3491FC01E057FF4FE49135
:10038000EE23C9F0222339F0233001F1A8F4213003
:1003900019F1223029F1F0E0EE0FFF1FE458FF4F72
:1003A000A591B4918FB7F894EC91611126C0309566
:1003B0003E233C938FBF08952730A9F02830C9F021
:1003C000243049F7809180008F7D03C080918000A8
:1003D0008F7780938000DFCF84B58F7784BDDBCFAC
:1003E00084B58F7DFBCF8091B0008F778093B00074
:1003F000D2CF8091B0008F7DF9CF3E2BDACF0F9313
:100400001F93CF93DF9321E030E0181619063CF0DC
:10041000009711F430E020E0319521953109289FB3
:100420008001299F100D389F100D1124902F812FCE
:1004300017FF02C090E080E0C92FD82FC536D10544
:1004400014F0C4E6D0E061E021303105B1F060E0A5
:100450002F3F3F4F91F48CE00E94B30161E08DE0AB
:100460000E94B3018BE00E9487001016110654F021
:1004700060E08BE00E94B30128C08CE00E94B301D1
:1004800060E0EDCFE3E7F0E0E491E33039F148F4E8
:10049000E130B9F0E23061F784B5806284BDC8BD57
:1004A00014C0E73029F1E83059F1E43009F78091C0
:1004B0008000806280938000D0938B00C0938A007C
:1004C00004C084B5806884BDC7BDD0939D01C0932E
:1004D0009C01DF91CF911F910F9108958091800031
:1004E000806880938000D0938900C0938800EDCF0E
:1004F0008091B00080688093B000C093B300E5CFD6
:100500008091B00080628093B000C093B400DDCFD2
:10051000FC0101900020E9F73197AF01481B590B0E
:10052000BC0187EA91E00C94A6008F929F92AF9253
:10053000BF920F931F93CF93DF93CDB7DEB7A197F1
:100540000FB6F894DEBF0FBECDBF19A2423008F43B
:100550004AE08E010F5D1F4F842E912CB12CA12CEF
:10056000A50194010E94A904E62FB901CA01EA304D
:10057000F4F4E05DD801EE938D01232B242B252B81
:1005800079F790E080E0109719F0CD010E94880281
:10059000A1960FB6F894DEBF0FBECDBFDF91CF910D
:1005A0001F910F91BF90AF909F908F900895E95C3D
:1005B000E1CFCF92DF92EF92FF92CF93DF936B0167
:1005C0007C016DE287EA91E00E944601EC0166271A
:1005D0007727CB016C197D098E099F094AE00E949B
:1005E00095028C0F9D1FDF91CF91FF90EF90DF90D0
:1005F000CF900895CF93DF930E948802EC0182E1AF
:1006000091E00E9488028C0F9D1FDF91CF91089589
:100610001F920F920FB60F9211242F933F938F9337
:100620009F93AF93BF938091A3019091A401A09158
:10063000A501B091A6013091A20123E0230F2D372F
:1006400058F50196A11DB11D2093A2018093A3012D
:100650009093A401A093A501B093A60180919E015F
:1006600090919F01A091A001B091A1010196A11DBF
:10067000B11D80939E0190939F01A093A001B09320
:10068000A101BF91AF919F918F913F912F910F90B9
:100690000FBE0F901F90189526E8230F0296A11DFC
:1006A000B11DD2CF1F920F920FB60F9211242F932C
:1006B0003F934F935F936F937F938F939F93AF93EA
:1006C000BF93EF93FF9387EA91E00E942401FF918B
:1006D000EF91BF91AF919F918F917F916F915F91BA
:1006E0004F913F912F910F900FBE0F901F90189533
:1006F0001F920F920FB60F9211242F938F939F93F7
:10070000EF93FF93E091B701F091B8018081E09100
:10071000BD01F091BE0182FD1BC090818091C0019E
:100720008F5F8F732091C101821741F0E091C0016A
:10073000F0E0E955FE4F958F8093C001FF91EF9156
:100740009F918F912F910F900FBE0F901F90189532
:100750008081F4CF789484B5826084BD84B5816053
:1007600084BD85B5826085BD85B5816085BD80917C
:100770006E00816080936E001092810080918100F4
:1007800082608093810080918100816080938100EC
:10079000809180008160809380008091B1008460AE
:1007A0008093B1008091B00081608093B00080910F
:1007B0007A00846080937A0080917A0082608093CE
:1007C0007A0080917A00816080937A0080917A002B
:1007D000806880937A001092C100E091B701F09197
:1007E000B80182E08083E091B301F091B4011082FE
:1007F000E091B501F091B6018FEC80831092BF01BA
:10080000E091BB01F091BC0186E08083E091B901E9
:10081000F091BA01808180618083E091B901F0910B
:10082000BA01808188608083E091B901F091BA01BA
:10083000808180688083E091B901F091BA01808164
:100840008F7D80838BE00E9487008CE00E94870070
:100850008DE00E94870090E080E00E94FF0185E12A
:1008600091E00E94FA0280E391E00E94FA028BE597
:1008700091E00E94FA0200E010E087EA91E00E9415
:100880000401892B21F187EA91E00E94E20084367D
:1008900041F18536E1F4C0919C01D0919D012F96E4
:1008A000CE010E94FF018CE791E00E948802BE0108
:1008B000DD0F880B990B97FF03C00E94D90203C07C
:1008C0004AE00E94950282E191E00E9488020115AF
:1008D000110599F20E941001882379F20E9400000C
:1008E000CCCFC0919C01D0919D012F97CE010E9449
:1008F000FF018BE891E0D9CFE7EAF1E013821282A1
:1009000088EE93E0A0E0B0E084839583A683B7836C
:1009100084E091E09183808385EC90E095878487E3
:1009200084EC90E09787868780EC90E0918B808BB9
:1009300081EC90E0938B828B82EC90E0958B848BA2
:1009400086EC90E0978B868B118E128E138E148E10
:100950000895A1E21A2EAA1BBB1BFD010DC0AA1F00
:10096000BB1FEE1FFF1FA217B307E407F50720F018
:10097000A21BB30BE40BF50B661F771F881F991F93
:100980001A9469F760957095809590959B01AC01DC
:10099000BD01CF010895EE0FFF1F0590F491E02DEA
:0609A0000994F894FFCF5A
:1009A600000000004601A600D30093010401E20006
:1009B600F6000D0A004443204D6F746F72206120CB
:1009C600666F737420636F6E666967757261740013
:1009D600546173746120452070656E747275202DA4
:1009E6002D20726F7469726520206D6F746F727539
:1009F6006C20696E61696E74652E00205461737493
:100A06006120442070656E747275202D2D20726FE2
:100A16007469726520696E61706F69004D6F746FDD
:100A260072207374657020757020004D6F746F723C
:0C0A3600207374657020646F776E2000E0
:107E0000112484B714BE81FFF0D085E080938100F7
:107E100082E08093C00088E18093C10086E0809377
:107E2000C20080E18093C4008EE0C9D0259A86E02C
:107E300020E33CEF91E0309385002093840096BBD3
:107E4000B09BFECF1D9AA8958150A9F7CC24DD24C4
:107E500088248394B5E0AB2EA1E19A2EF3E0BF2EE7
:107E6000A2D0813461F49FD0082FAFD0023811F036
:107E7000013811F484E001C083E08DD089C08234E0
:107E800011F484E103C0853419F485E0A6D080C0E4
:107E9000853579F488D0E82EFF2485D0082F10E0AE
:107EA000102F00270E291F29000F111F8ED06801E7
:107EB0006FC0863521F484E090D080E0DECF843638
:107EC00009F040C070D06FD0082F6DD080E0C81688
:107ED00080E7D80618F4F601B7BEE895C0E0D1E017
:107EE00062D089930C17E1F7F0E0CF16F0E7DF06D8
:107EF00018F0F601B7BEE89568D007B600FCFDCFD4
:107F0000A601A0E0B1E02C9130E011968C91119780
:107F100090E0982F8827822B932B1296FA010C0160
:107F200087BEE89511244E5F5F4FF1E0A038BF0790
:107F300051F7F601A7BEE89507B600FCFDCF97BE46
:107F4000E89526C08437B1F42ED02DD0F82E2BD052
:107F50003CD0F601EF2C8F010F5F1F4F84911BD097
:107F6000EA94F801C1F70894C11CD11CFA94CF0C13
:107F7000D11C0EC0853739F428D08EE10CD085E9AC
:107F80000AD08FE07ACF813511F488E018D01DD067
:107F900080E101D065CF982F8091C00085FFFCCF94
:107FA0009093C60008958091C00087FFFCCF809118
:107FB000C00084FD01C0A8958091C6000895E0E648
:107FC000F0E098E1908380830895EDDF803219F02E
:107FD00088E0F5DFFFCF84E1DECF1F93182FE3DFCA
:107FE0001150E9F7F2DF1F91089580E0E8DFEE27F6
:047FF000FF270994CA
:027FFE00040479
:0400000300007E007B
:00000001FF
