:100000000C945D000C9485000C9485000C94850084
:100010000C9485000C9485000C9485000C9485004C
:100020000C9485000C9485000C9485000C9460045D
:100030000C9485000C9485000C9485000C9485002C
:100040000C94BE030C9485000C942E040C940804AC
:100050000C9485000C9485000C9485000C9485000C
:100060000C9485000C94850000000008000201003B
:100070000003040700000000000000000000000072
:10008000250028002B0000000000240027002A0083
:10009000040404040404040402020202020203032E
:1000A0000303030301020408102040800102040836
:1000B00010200102040810201C0511241FBECFEFE0
:1000C000D8E0DEBFCDBF11E0A0E0B1E0EAE9F3E1A6
:1000D00002C005900D92AE3FB107D9F722E0AEEF16
:1000E000B1E001C01D92A33DB207E1F710E0CDE5FC
:1000F000D0E004C02197FE010E94C509CC35D1078C
:10010000C9F70E9479050C94CB090C94000090E08B
:10011000FC01EC55FF4F249180579F4FFC018491C7
:10012000882399F090E0880F991FFC01EA57FF4F50
:10013000A591B491FC01E458FF4F859194918FB73C
:10014000F894EC91E22BEC938FBF08958091030219
:100150009091040208958091010290910202089505
:10016000AF92BF92CF92DF92EF92FF920F931F93C5
:10017000CF93DF936C017B018B01040F151FEB0103
:100180005E01AE18BF08C017D10759F06991D601BA
:10019000ED91FC910190F081E02DC6010995892B2C
:1001A00079F7C501DF91CF911F910F91FF90EF90EB
:1001B000DF90CF90BF90AF900895FC01538D448D98
:1001C000252F30E0842F90E0821B930B541710F002
:1001D000CF96089501970895FC01918D828D98170F
:1001E00061F0A28DAE0FBF2FB11D5D968C91928DE7
:1001F0009F5F9F73928F90E008958FEF9FEF089518
:10020000FC01918D828D981731F0828DE80FF11DE0
:10021000858D90E008958FEF9FEF0895FC01918DFB
:10022000228D892F90E0805C9F4F821B91098F73F4
:10023000992708958EE092E00E940E0121E0892B1B
:1002400009F420E0822F089580E090E0892B29F0C6
:100250000E941A0181110C9400000895FC01A48DE4
:10026000A80FB92FB11DA35ABF4F2C91848D90E0D8
:1002700001968F739927848FA689B7892C93A089BB
:10028000B1898C91837080648C93938D848D981345
:1002900006C00288F389E02D80818F7D80830895D8
:1002A000EF92FF920F931F93CF93DF93EC0181E0C6
:1002B000888F9B8D8C8D98131AC0E889F98980816D
:1002C00085FF15C09FB7F894EE89FF896083E889A0
:1002D000F98980818370806480839FBF81E090E092
:1002E000DF91CF911F910F91FF90EF900895F62E1F
:1002F0000B8D10E00F5F1F4F0F731127E02E8C8DB9
:100300008E110CC00FB607FCFACFE889F9898081FD
:1003100085FFF5CFCE010E942E01F1CFEB8DEC0FC2
:10032000FD2FF11DE35AFF4FF0829FB7F8940B8F1A
:10033000EA89FB8980818062CFCFCF93DF93EC0184
:10034000888D8823B9F0AA89BB89E889F9898C91BD
:1003500085FD03C0808186FD0DC00FB607FCF7CF79
:100360008C9185FFF2CF808185FFEDCFCE010E9479
:100370002E01E9CFDF91CF91089590E0FC01E8597B
:10038000FF4F2491FC01EC55FF4F3491FC01E057E5
:10039000FF4FE491EE23C9F0222339F0233001F11D
:1003A000A8F4213019F1223029F1F0E0EE0FFF1FFF
:1003B000E458FF4FA591B4918FB7F894EC91611177
:1003C00026C030953E233C938FBF08952730A9F077
:1003D0002830C9F0243049F7809180008F7D03C018
:1003E000809180008F7780938000DFCF84B58F77F6
:1003F00084BDDBCF84B58F7DFBCF8091B0008F773C
:100400008093B000D2CF8091B0008F7DF9CF3E2B8A
:10041000DACF8091FE019091FF0108951816190618
:100420005CF461E087E00E94BD0181E090E0909380
:10043000FF018093FE01089560E087E00E94BD0106
:1004400090E080E0F4CF8F929F92AF92BF92DF92C4
:10045000EF92FF920F931F93CF93DF938D3291050D
:1004600014F48DE290E08C018838910514F007E8CF
:1004700010E0D090D0028BE08D1508F44EC0809132
:10048000D20248E5E42E42E0F42EE81AF10887FD96
:10049000F394EE0CFF1CEE0CFF1C8091D102C8E817
:1004A000D0E0C81BD10987FDD395CC0FDD1FCC0F41
:1004B000DD1F4E010D2E000CAA08BB0897010F2C62
:1004C000000C440B550B281939094A095B09D8015E
:1004D0000E94B60724EB30E040E050E00E948C0719
:1004E000820E931EA41EB51E8C169D062CF0E701ED
:1004F0008E149F040CF4E4012297CC0FDD1F2FB75C
:10050000F8948D2D90E0FC01EE0FFF1FE80FF91F0E
:10051000E555FD4FD283C1832FBF10930402009392
:100520000302DF91CF911F910F91FF90EF90DF9029
:10053000BF90AF909F908F9008950F931F93CF938C
:10054000DF9321E030E0181619063CF0009711F413
:1005500030E020E0319521953109289F8001299FC5
:10056000100D389F100D1124902F812F17FF02C0FE
:1005700090E080E0C92FD82FC536D10514F0C4E62D
:10058000D0E061E021303105B1F060E02F3F3F4F16
:1005900091F48CE00E94BD0161E08DE00E94BD01FC
:1005A0008BE00E9487001016110654F060E08BE08B
:1005B0000E94BD0128C08CE00E94BD0160E0EDCF2B
:1005C000E3E7F0E0E491E33039F148F4E130B9F0E9
:1005D000E23061F784B5806284BDC8BD14C0E730E5
:1005E00029F1E83059F1E43009F780918000806208
:1005F00080938000D0938B00C0938A0004C084B5A0
:10060000806884BDC7BDD0930202C0930102DF9110
:10061000CF911F910F910895809180008068809301
:100620008000D0938900C0938800EDCF8091B00006
:1006300080688093B000C093B300E5CF8091B00094
:1006400080628093B000C093B400DDCFFC010190C4
:100650000020E9F73197AF01481B590BBC018EE030
:1006600092E00C94B0008F929F92AF92BF920F9342
:100670001F93CF93DF93CDB7DEB7A1970FB6F89452
:10068000DEBF0FBECDBF19A2423008F44AE08E0192
:100690000F5D1F4F842E912CB12CA12CA50194012C
:1006A0000E94BE07E62FB901CA01EA30F4F4E05D0A
:1006B000D801EE938D01232B242B252B79F790E085
:1006C00080E0109719F0CD010E942603A1960FB685
:1006D000F894DEBF0FBECDBFDF91CF911F910F9178
:1006E000BF90AF909F908F900895E95CE1CFCF933A
:1006F000DF930E942603EC018EE791E00E9426031F
:100700008C0F9D1FDF91CF910895009711F00C94ED
:10071000260390E080E00895CF92DF92EF92FF925F
:10072000CF93DF936C01990FEE08FF08F7FE1FC00F
:100730006DE28EE092E00E945001EC01662777277F
:10074000CB016C197D098E099F094AE00E94330391
:10075000C80FD91F8EE791E00E9426038C0F9D1FC2
:10076000DF91CF91FF90EF90DF90CF9008954AE016
:10077000C701B6010E943303EC01ECCF1F920F9228
:100780000FB60F9211242F933F938F939F93AF93A4
:10079000BF9380910A0290910B02A0910C02B0913C
:1007A0000D023091090223E0230F2D3758F50196F1
:1007B000A11DB11D2093090280930A0290930B02A0
:1007C000A0930C02B0930D02809105029091060255
:1007D000A0910702B09108020196A11DB11D80935E
:1007E000050290930602A0930702B0930802BF91FE
:1007F000AF919F918F913F912F910F900FBE0F90CE
:100800001F90189526E8230F0296A11DB11DD2CF87
:100810001F920F920FB60F9211242F933F934F9375
:100820005F936F937F938F939F93AF93BF93EF9358
:10083000FF938EE092E00E942E01FF91EF91BF9115
:10084000AF919F918F917F916F915F914F913F9168
:100850002F910F900FBE0F901F9018951F920F921F
:100860000FB60F9211242F938F939F93EF93FF93C3
:10087000E0911E02F0911F028081E0912402F0912C
:10088000250282FD1BC09081809127028F5F8F73AC
:1008900020912802821741F0E0912702F0E0E25F08
:1008A000FD4F958F80932702FF91EF919F918F913C
:1008B0002F910F900FBE0F901F9018958081F4CF4D
:1008C0001F920F920FB60F9211242F933F934F93C5
:1008D0005F936F937F938F939F93AF93BF93CF93C8
:1008E000DF93EF93FF9380910002C091CF02D0E09D
:1008F00087FF24C01092850010928400809100022E
:100900008F5F8093000280910002082E000C990BEB
:100910008C179D0724F4809100028C30C4F18091E3
:10092000840090918500049680349C4908F47AC034
:100930008091840090918500049676C08091000299
:10094000082E000C990B8C179D07C4F6E09100024D
:100950008E2FEE0F990BFC01EE0FFF1FE80FF91F12
:10096000E555FD4F808186FFC9CFE09100028E2FB3
:10097000EE0F990BFC01EE0FFF1FE80FF91FE55575
:10098000FD4F808160E08F730E94BD01B7CF209141
:10099000840030918500E09100028E2FEE0F990BBC
:1009A000FC01EE0FFF1FE80FF91FE555FD4F818198
:1009B0009281820F931F9093890080938800E09129
:1009C00000028E2FEE0F990BFC01EE0FFF1FE80FB8
:1009D000F91FE555FD4F808186FF11C0E0910002AF
:1009E0008E2FEE0F990BFC01EE0FFF1FE80FF91F82
:1009F000E555FD4F808161E08F730E94BD01FF913D
:100A0000EF91DF91CF91BF91AF919F918F917F91A6
:100A10006F915F914F913F912F910F900FBE0F906B
:100A20001F90189580E49CE990938900809388003A
:100A30008FEF80930002E3CF109211021092100208
:100A400088EE93E0A0E0B0E080931202909313024E
:100A5000A0931402B093150280E791E090930F02E7
:100A600080930E0285EC90E090931B0280931A0213
:100A700084EC90E090931D0280931C0280EC90E047
:100A800090931F0280931E0281EC90E090932102CC
:100A90008093200282EC90E09093230280932202C4
:100AA00086EC90E090932502809324021092270216
:100AB000109228021092290210922A028091CF02ED
:100AC0008C3098F491E0980F9093CF028093D002ED
:100AD00090E0FC01EE0FFF1FE80FF91FE555FD4FF9
:100AE00088EB9BE09283818308958FEF8093D002FF
:100AF0000895789484B5826084BD84B5816084BD96
:100B000085B5826085BD85B5816085BD80916E00AB
:100B1000816080936E0010928100809181008260DC
:100B20008093810080918100816080938100809119
:100B300080008160809380008091B1008460809308
:100B4000B1008091B00081608093B00080917A0004
:100B5000846080937A0080917A00826080937A002A
:100B600080917A00816080937A0080917A00806819
:100B700080937A001092C100E0911E02F0911F0252
:100B800082E08083E0911A02F0911B021082E091D2
:100B90001C02F0911D028FEC808310922602E091DE
:100BA0002202F091230286E08083E0912002F091FE
:100BB0002102808180618083E0912002F0912102F6
:100BC000808188608083E0912002F0912102808101
:100BD00080688083E0912002F091210280818F7DE6
:100BE000808387E00E9487008091D0028C3008F0DB
:100BF00050C089E00E9487008091D002282F30E009
:100C0000F901EE0FFF1FE20FF31FE555FD4F908135
:100C1000907C996090831092D1021092D2022CE0C5
:100C2000622F0E94B909829FB001112430E020E0B8
:100C3000AB01420F531FFA01EE0FFF1FE40FF51F28
:100C4000E555FD4F908196FD16C02F5F3F4F2C302C
:100C5000310571F781110FC01092800082E08093FE
:100C600081001092850010928400B19A80916F00EB
:100C7000826080936F00E091D0028E2F90E0FC01A3
:100C8000EE0FFF1FE80FF91FE555FD4F80818064CF
:100C900080838BE00E9487008CE00E9487008DE0BB
:100CA0000E9487000CE611E080E0282E80E0382EBC
:100CB0008EE092E00E940E01892B09F441C08EE083
:100CC00092E00E94EC00853609F477C00CF044C035
:100CD000813609F454C0843609F47FC0C0E0D1E005
:100CE000CE0104960E9485038AEE91E00E9485035E
:100CF000EA81FB810995BC01990F880B990B0E9431
:100D000092086B017C014B015C01AC019B010E94CC
:100D1000B409882309F46CC08DEE91E00E9426038B
:100D20008BEF91E00E948503CE0148960E948503D7
:100D300089EF91E00E948503A4960C171D0781F6A8
:100D40002114310409F4B4CF0E941A01882309F454
:100D5000AFCF0E940000ACCF833729F18737C9F0AD
:100D6000813709F0BBCFE0910001F091010181E0F2
:100D700090E0099581E891E00E947703AFCFE09180
:100D80000001F091010190E080E0099580E991E097
:100D9000F3CF809103029091040205960E942302F2
:100DA00080EA91E0E9CF80910302909104020597D7
:100DB0000E94230284EB91E0DFCFC0910102D09129
:100DC00002022A96CE010E949D028AEC91E00E94C6
:100DD0008503CE010E948C0381CFC0910102D09186
:100DE00002022A97CE010E949D0289ED91E0EFCF89
:100DF00026013701E89477F82FEF3FEF4FE75FE7E1
:100E0000C301B2010E94B40981110DC02FEF3FEF61
:100E10004FE75FE7C301B2010E945C0818161CF49B
:100E200081EF91E07BCF2FEF3FEF4FE75FE4C7010A
:100E3000B6010E94420918161CF485EF91E06ECFAE
:100E40002FEF3FEF4FE75FECC701B6010E945C0850
:100E500087FDF3CF20E030E0A901C701B6010E9471
:100E60005C0887FF0BC06DE28EE092E00E945001AB
:100E700046015701B7FAB094B7F8B0942AE037EDBD
:100E800043EA5BE3C501B4010E94F0074B015C013A
:100E90000E9461086B017C010E9490089B01AC01DB
:100EA000C501B4010E94EF074B015C014AE0C70194
:100EB000B6010E9433036EE28EE092E00E94500180
:100EC00020E030E040E251E4C501B4010E9447094E
:100ED0004B015C010E9461086B01F12CE12C4AE09E
:100EE000C701B6010E943303C701B6010E949008F2
:100EF0009B01AC01C501B4010E94EF0720E030E086
:100F000040E251E40E9447090E94610890E080E0BD
:100F10004AE00E94330304CF052E97FB1EF4009491
:100F20000E94A30757FD07D00E94BE0707FC03D00D
:100F30004EF40C94A30750954095309521953F4F62
:100F40004F4F5F4F089590958095709561957F4FB5
:100F50008F4F9F4F08950E94E007A59F900DB49F6B
:100F6000900DA49F800D911D11240895B7FF0C943E
:100F7000AB070E94AB07821B930B0895A1E21A2EC8
:100F8000AA1BBB1BFD010DC0AA1FBB1FEE1FFF1F2D
:100F9000A217B307E407F50720F0A21BB30BE40B7D
:100FA000F50B661F771F881F991F1A9469F76095C4
:100FB0007095809590959B01AC01BD01CF0108957E
:100FC000A29FB001B39FC001A39F700D811D11248A
:100FD000911DB29F700D811D1124911D08955058CF
:100FE000BB27AA270E9407080C9408090E94FA0848
:100FF00038F00E94010920F039F49F3F19F426F4DB
:101000000C94F7080EF4E095E7FB0C94F108E92F37
:101010000E94190958F3BA176207730784079507E6
:1010200020F079F4A6F50C943B090EF4E0950B2E14
:10103000BA2FA02D0B01B90190010C01CA01A0012A
:101040001124FF27591B99F0593F50F4503E68F185
:101050001A16F040A22F232F342F4427585FF3CFC6
:10106000469537952795A795F0405395C9F77EF497
:101070001F16BA0B620B730B840BBAF09150A1F0E0
:10108000FF0FBB1F661F771F881FC2F70EC0BA0F66
:10109000621F731F841F48F4879577956795B795EE
:1010A000F7959E3F08F0B0CF9395880F08F09927E9
:1010B000EE0F9795879508950E94CD0808F481E07A
:1010C00008950E94210988F09F5798F0B92F992719
:1010D000B751B0F0E1F0660F771F881F991F1AF023
:1010E000BA95C9F714C0B13091F00E943B09B1E044
:1010F00008950C943B09672F782F8827B85F39F043
:10110000B93FCCF3869577956795B395D9F73EF4BB
:1011100090958095709561957F4F8F4F9F4F089563
:10112000E89409C097FB3EF4909580957095619581
:101130007F4F8F4F9F4F9923A9F0F92F96E9BB2737
:101140009395F695879577956795B795F111F8CFB3
:10115000FAF4BB0F11F460FF1BC06F5F7F4F8F4F1E
:101160009F4F16C0882311F096E911C0772321F014
:101170009EE8872F762F05C0662371F096E8862FAC
:1011800070E060E02AF09A95660F771F881FDAF703
:10119000880F9695879597F90895990F0008550F30
:1011A000AA0BE0E8FEEF16161706E807F907C0F0ED
:1011B00012161306E407F50798F0621B730B840BF5
:1011C000950B39F40A2661F0232B242B252B21F4CF
:1011D00008950A2609F4A140A6958FEF811D811D6F
:1011E000089597F99F6780E870E060E008959FEFA9
:1011F00080EC089500240A941616170618060906AE
:10120000089500240A94121613061406050608957C
:10121000092E0394000C11F4882352F0BB0F40F404
:10122000BF2B11F460FF04C06F5F7F4F8F4F9F4F44
:10123000089557FD9058440F551F59F05F3F71F0C6
:101240004795880F97FB991F61F09F3F79F087952D
:101250000895121613061406551FF2CF4695F1DFB6
:1012600008C0161617061806991FF1CF8695710546
:10127000610508940895E894BB2766277727CB017A
:1012800097F908950E94CD0808F48FEF08950E9401
:101290005A090C9408090E94FA0838F00E940109C2
:1012A00020F0952311F00C94F1080C94F708112408
:1012B0000C943C090E94190970F3959FC1F3950F96
:1012C00050E0551F629FF001729FBB27F00DB11DCA
:1012D000639FAA27F00DB11DAA1F649F6627B00D5A
:1012E000A11D661F829F2227B00DA11D621F739F43
:1012F000B00DA11D621F839FA00D611D221F749F51
:101300003327A00D611D231F849F600D211D822F97
:10131000762F6A2F11249F5750409AF0F1F08823BE
:101320004AF0EE0FFF1FBB1F661F771F881F9150EB
:101330005040A9F79E3F510580F00C94F1080C94A1
:101340003C095F3FE4F3983ED4F386957795679523
:10135000B795F795E7959F5FC1F7FE2B880F911D15
:101360009695879597F908950E94CD08880B990B5B
:101370000895991B79E004C0991F961708F0961BF1
:10138000881F7A95C9F780950895EE0FFF1F059085
:0A139000F491E02D0994F894FFCFCA
:10139A000E02090253746174650000000000000027
:1013AA000000000000000000000000000000000033
:1013BA00000000002302A600416E676C6500000071
:1013CA0000000000000000000000000067726400D6
:1013DA0000000000000000009D02AB00506F77651E
:1013EA007200000000000000000000000000000081
:1013FA0025000000000000000000000000000000BE
:10140A005001B000DD009D010E01EC0000010D0A43
:10141A000052656C6179207475726E73206F6E006C
:10142A0052656C6179207475726E73206F666600FE
:10143A00536572766F204D6F746F72207374657086
:10144A0020757000536572766F204D6F746F72202D
:10145A007374657020646F776E004D6F746F7220BD
:10146A007374657020757020004D6F746F722073ED
:10147A0074657020646F776E20003A20006E616E8A
:0E148A0000696E66006F766600202C20000060
:107E0000112484B714BE81FFF0D085E080938100F7
:107E100082E08093C00088E18093C10086E0809377
:107E2000C20080E18093C4008EE0C9D0259A86E02C
:107E300020E33CEF91E0309385002093840096BBD3
:107E4000B09BFECF1D9AA8958150A9F7CC24DD24C4
:107E500088248394B5E0AB2EA1E19A2EF3E0BF2EE7
:107E6000A2D0813461F49FD0082FAFD0023811F036
:107E7000013811F484E001C083E08DD089C08234E0
:107E800011F484E103C0853419F485E0A6D080C0E4
:107E9000853579F488D0E82EFF2485D0082F10E0AE
:107EA000102F00270E291F29000F111F8ED06801E7
:107EB0006FC0863521F484E090D080E0DECF843638
:107EC00009F040C070D06FD0082F6DD080E0C81688
:107ED00080E7D80618F4F601B7BEE895C0E0D1E017
:107EE00062D089930C17E1F7F0E0CF16F0E7DF06D8
:107EF00018F0F601B7BEE89568D007B600FCFDCFD4
:107F0000A601A0E0B1E02C9130E011968C91119780
:107F100090E0982F8827822B932B1296FA010C0160
:107F200087BEE89511244E5F5F4FF1E0A038BF0790
:107F300051F7F601A7BEE89507B600FCFDCF97BE46
:107F4000E89526C08437B1F42ED02DD0F82E2BD052
:107F50003CD0F601EF2C8F010F5F1F4F84911BD097
:107F6000EA94F801C1F70894C11CD11CFA94CF0C13
:107F7000D11C0EC0853739F428D08EE10CD085E9AC
:107F80000AD08FE07ACF813511F488E018D01DD067
:107F900080E101D065CF982F8091C00085FFFCCF94
:107FA0009093C60008958091C00087FFFCCF809118
:107FB000C00084FD01C0A8958091C6000895E0E648
:107FC000F0E098E1908380830895EDDF803219F02E
:107FD00088E0F5DFFFCF84E1DECF1F93182FE3DFCA
:107FE0001150E9F7F2DF1F91089580E0E8DFEE27F6
:047FF000FF270994CA
:027FFE00040479
:0400000300007E007B
:00000001FF
