:100000000C945D000C9485000C9485000C94850084
:100010000C9485000C9485000C9485000C9485004C
:100020000C9485000C9485000C9485000C945E0360
:100030000C9485000C9485000C9485000C9485002C
:100040000C9414030C9485000C94E2020C94BC02F2
:100050000C9485000C9485000C9485000C9485000C
:100060000C9485000C94850000000008000201003B
:100070000003040700000000000000000000000072
:10008000250028002B0000000000240027002A0083
:10009000040404040404040402020202020203032E
:1000A0000303030301020408102040800102040836
:1000B00010200102040810201A0411241FBECFEFE3
:1000C000D8E0DEBFCDBF11E0A0E0B1E0EEE1FCE0A2
:1000D00002C005900D92AA33B107D9F722E0AAE336
:1000E000B1E001C01D92AB30B207E1F710E0CDE501
:1000F000D0E004C02197FE010E940706CC35D1074D
:10010000C9F70E9477040C940D060C940000AF927E
:10011000BF92CF92DF92EF92FF920F931F93CF93F4
:10012000DF936C017B018B01040F151FEB015E0156
:10013000AE18BF08C017D10759F06991D601ED91EB
:10014000FC910190F081E02DC6010995892B79F78A
:10015000C501DF91CF911F910F91FF90EF90DF903C
:10016000CF90BF90AF900895FC01538D448D252F03
:1001700030E0842F90E0821B930B541710F0CF9641
:10018000089501970895FC01918D828D981761F073
:10019000A28DAE0FBF2FB11D5D968C91928D9F5F8A
:1001A0009F73928F90E008958FEF9FEF0895FC0169
:1001B000918D828D981731F0828DE80FF11D858D1C
:1001C00090E008958FEF9FEF0895FC01918D228DAF
:1001D000892F90E0805C9F4F821B91098F73992734
:1001E000089586E491E00E94E50021E0892B09F45E
:1001F00020E0822F089580E090E0892B29F00E9472
:10020000F10081110C9400000895FC01A48DA80F49
:10021000B92FB11DA35ABF4F2C91848D90E0019648
:100220008F739927848FA689B7892C93A089B18968
:100230008C91837080648C93938D848D981306C009
:100240000288F389E02D80818F7D80830895EF926D
:10025000FF920F931F93CF93DF93EC0181E0888F80
:100260009B8D8C8D98131AC0E889F989808185FF50
:1002700015C09FB7F894EE89FF896083E889F989F2
:1002800080818370806480839FBF81E090E0DF91F4
:10029000CF911F910F91FF90EF900895F62E0B8D47
:1002A00010E00F5F1F4F0F731127E02E8C8D8E1102
:1002B0000CC00FB607FCFACFE889F989808185FF69
:1002C000F5CFCE010E940501F1CFEB8DEC0FFD2F94
:1002D000F11DE35AFF4FF0829FB7F8940B8FEA8924
:1002E000FB8980818062CFCFCF93DF93EC01888D33
:1002F0008823B9F0AA89BB89E889F9898C9185FDA1
:1003000003C0808186FD0DC00FB607FCF7CF8C912E
:1003100085FFF2CF808185FFEDCFCE010E940501E0
:10032000E9CFDF91CF91089590E0FC01E859FF4FAC
:100330002491FC01EC55FF4F3491FC01E057FF4F35
:10034000E491EE23C9F0222339F0233001F1A8F41F
:10035000213019F1223029F1F0E0EE0FFF1FE458AF
:10036000FF4FA591B4918FB7F894EC91611126C01D
:1003700030953E233C938FBF08952730A9F0283055
:10038000C9F0243049F7809180008F7D03C08091AF
:1003900080008F7780938000DFCF84B58F7784BD16
:1003A000DBCF84B58F7DFBCF8091B0008F778093BA
:1003B000B000D2CF8091B0008F7DF9CF3E2BDACF45
:1003C0003FB7F8948091400190914101A091420182
:1003D000B091430126B5A89B05C02F3F19F00196A7
:1003E000A11DB11D3FBFBA2FA92F982F8827BC018F
:1003F000CD01620F711D811D911D42E0660F771FB7
:10040000881F991F4A95D1F708958F929F92AF92B6
:10041000BF92CF92DF92EF92FF920E94E0014B01D8
:100420005C0188ECC82ED12CE12CF12C0E94E0015B
:10043000681979098A099B09683E7340810591050D
:10044000A8F321E0C21AD108E108F10888EE880E6D
:1004500083E0981EA11CB11CC114D104E104F10475
:1004600029F7FF90EF90DF90CF90BF90AF909F90D3
:100470008F9008958F929F92AF92BF92DF92EF92EA
:10048000FF920F931F93CF93DF938E31910514F456
:100490008EE190E08C018838910514F007E810E0B7
:1004A000D09008028BE08D1508F44EC080910A02AE
:1004B00048E5E42E42E0F42EE81AF10887FDF394B3
:1004C000EE0CFF1CEE0CFF1C80910902C8E8D0E086
:1004D000C81BD10987FDD395CC0FDD1FCC0FDD1FC5
:1004E0004E010D2E000CAA08BB0897010F2C000C22
:1004F000440B550B281939094A095B09D8010E9498
:10050000C20524EB30E040E050E00E949805820EE6
:10051000931EA41EB51E8C169D062CF0E7018E14AA
:100520009F040CF4E4012297CC0FDD1F2FB7F89441
:100530008D2D90E0FC01EE0FFF1FE80FF91FED512C
:10054000FE4FD283C1832FBF109345010093440116
:10055000DF91CF911F910F91FF90EF90DF90BF90AF
:10056000AF909F908F90089542E050E062E171E07B
:1005700086E491E00C9487001F920F920FB60F92C1
:1005800011242F933F934F935F936F937F938F9398
:100590009F93AF93BF93EF93FF9386E491E00E9404
:1005A0000501FF91EF91BF91AF919F918F917F9145
:1005B0006F915F914F913F912F910F900FBE0F90D0
:1005C0001F9018951F920F920FB60F9211242F9320
:1005D0008F939F93EF93FF93E0915601F091570112
:1005E0008081E0915C01F0915D0182FD1BC09081F2
:1005F00080915F018F5F8F7320916001821741F0BE
:10060000E0915F01F0E0EA5BFE4F958F80935F0120
:10061000FF91EF919F918F912F910F900FBE0F90AF
:100620001F9018958081F4CF1F920F920FB60F92F2
:1006300011242F933F938F939F93AF93BF938091F8
:100640003C0190913D01A0913E01B0913F0130915C
:100650003B0123E0230F2D3758F50196A11DB11D55
:1006600020933B0180933C0190933D01A0933E0178
:10067000B0933F018091400190914101A0914201CE
:10068000B09143010196A11DB11D8093400190934B
:100690004101A0934201B0934301BF91AF919F915B
:1006A0008F913F912F910F900FBE0F901F90189533
:1006B00026E8230F0296A11DB11DD2CF1F920F92E3
:1006C0000FB60F9211242F933F934F935F936F9325
:1006D0007F938F939F93AF93BF93CF93DF93EF93CA
:1006E000FF9380913A01C0910702D0E087FF24C0B8
:1006F000109285001092840080913A018F5F809360
:100700003A0180913A01082E000C990B8C179D0735
:1007100024F480913A018C30C4F18091840090914E
:100720008500049680349C4908F47AC08091840046
:1007300090918500049676C080913A01082E000CB5
:10074000990B8C179D07C4F6E0913A018E2FEE0F9E
:10075000990BFC01EE0FFF1FE80FF91FED51FE4F43
:10076000808186FFC9CFE0913A018E2FEE0F990B61
:10077000FC01EE0FFF1FE80FF91FED51FE4F8081C6
:1007800060E08F730E949401B7CF20918400309174
:100790008500E0913A018E2FEE0F990BFC01EE0FD0
:1007A000FF1FE80FF91FED51FE4F81819281820FEB
:1007B000931F9093890080938800E0913A018E2FD7
:1007C000EE0F990BFC01EE0FFF1FE80FF91FED5123
:1007D000FE4F808186FF11C0E0913A018E2FEE0F0F
:1007E000990BFC01EE0FFF1FE80FF91FED51FE4FB3
:1007F000808161E08F730E949401FF91EF91DF91FE
:10080000CF91BF91AF919F918F917F916F915F91A8
:100810004F913F912F910F900FBE0F901F90189501
:1008200080E49CE990938900809388008FEF809307
:100830003A01E3CF109249011092480188EE93E00B
:10084000A0E0B0E080934A0190934B01A0934C014B
:10085000B0934D0184E091E090934701809346016D
:1008600085EC90E0909353018093520184EC90E0EA
:10087000909355018093540180EC90E09093570140
:100880008093560181EC90E0909359018093580138
:1008900082EC90E090935B0180935A0186EC90E0AB
:1008A00090935D0180935C0110925F011092600152
:1008B0001092610110926201809107028C3098F4CD
:1008C00091E0980F909307028093080290E0FC015A
:1008D000EE0FFF1FE80FF91FED51FE4F88EB9BE075
:1008E0009283818308958FEF80930802089578940E
:1008F00084B5826084BD84B5816084BD85B5826025
:1009000085BD85B5816085BD80916E0081608093D5
:100910006E0010928100809181008260809381003E
:10092000809181008160809381008091800081604E
:10093000809380008091B10084608093B1008091A9
:10094000B00081608093B00080917A0084608093D1
:100950007A0080917A00826080937A0080917A0098
:10096000816080937A0080917A00806880937A0019
:100970001092C100E0915601F091570182E080830E
:10098000E0915201F09153011082E0915401F091F5
:1009900055018FEC808310925E01E0915A01F09135
:1009A0005B0186E08083E0915801F09159018081DC
:1009B00080618083E0915801F091590180818860C5
:1009C0008083E0915801F091590180818068808393
:1009D000E0915801F091590180818F7D8083809151
:1009E00008028C3008F068C0EDEAF0E02491E9E9F3
:1009F000F0E08491882399F090E0880F991FFC0122
:100A0000EA57FF4FA591B491FC01E458FF4F85913F
:100A100094918FB7F894EC91E22BEC938FBF809177
:100A20000802282F30E0F901EE0FFF1FE20FF31F3D
:100A3000ED51FE4F9081907C996090831092090255
:100A400010920A022CE0622F0E94FB05829FB001E7
:100A5000112430E020E0AB01420F531FFA01EE0FEA
:100A6000FF1FE40FF51FED51FE4F908196FD16C05C
:100A70002F5F3F4F2C30310571F781110FC010925D
:100A8000800082E0809381001092850010928400A3
:100A9000B19A80916F00826080936F00E0910802AC
:100AA0008E2F90E0FC01EE0FFF1FE80FF91FED51B4
:100AB000FE4F80818064808390E080E00E943A0253
:100AC000C0E0D0E086E491E00E94E500892BD9F0F7
:100AD00086E491E00E94C3008337F1F0873799F4F0
:100AE000809144019091450105960E943A0240E1AF
:100AF00050E065E171E086E491E00E9487000E9489
:100B0000B4020E9405022097E9F20E94F1008823B6
:100B1000C9F20E940000D6CF809144019091450116
:100B200005970E943A0242E150E066E271E0E3CFAD
:100B3000052E97FB1EF400940E94AF0557FD07D0C9
:100B40000E94CA0507FC03D04EF40C94AF055095E3
:100B50004095309521953F4F4F4F5F4F08959095A9
:100B60008095709561957F4F8F4F9F4F08950E949C
:100B7000EC05A59F900DB49F900DA49F800D911D35
:100B800011240895B7FF0C94B7050E94B705821B86
:100B9000930B0895A1E21A2EAA1BBB1BFD010DC0E9
:100BA000AA1FBB1FEE1FFF1FA217B307E407F5071D
:100BB00020F0A21BB30BE40BF50B661F771F881FF9
:100BC000991F1A9469F760957095809590959B018F
:100BD000AC01BD01CF010895A29FB001B39FC00138
:100BE000A39F700D811D1124911DB29F700D811D59
:100BF0001124911D0895991B79E004C0991F96173F
:100C000008F0961B881F7A95C9F780950895EE0F16
:0E0C1000FF1F0590F491E02D0994F894FFCF9A
:100C1E000000000027018700B4007401E500C30046
:100C2E00D7000D0A004163747561746F722073747E
:100C3E006570207570004163747561746F722073F6
:0A0C4E0074657020646F776E00007B
:00000001FF
